:100000000C94B6000C9420010C9446010C946C01E5
:100010000C9492010C94B8010C94D3000C94D3006E
:100020000C94D3000C9404020C94D3000C94D300D1
:100030000C94D3000C94DE010C94D3000C94D300E8
:100040000C9411060C94D3000C9476020C94A1022B
:100050000C94CC020C942A020C94D3000C94D30080
:100060000C9450020C94D3006572726F72207374FA
:10007000617475732000656E64206F662070726F06
:100080006772616D00646561646C6F636B007072B0
:100090006F6772616D206C6F6164696E6720666165
:1000A000696C6564000A46696E616C206D61636805
:1000B000696E652073746174653A000A00256300F7
:1000C00074766D2D61726475696E6F3A20255300E8
:1000D0000A00253032782000697074723E000A00F0
:1000E000253034782000777074723E000A7770747F
:1000F000723D25303478202872656C3D2530347887
:10010000292020697074723D25303478202872656A
:100110006C3D2530347829202065666C6167733D1D
:10012000253034782073666C6167733D25303478F0
:100130000A617265673D2530347820627265673DDB
:100140002530347820637265673D2530347820206F
:100150006F7265673D253034780A000A66696C6500
:100160003D2553206C696E653D25640011241FBE3A
:10017000CFEFD8E0DEBFCDBF11E0A0E0B1E0E4E317
:10018000FEE402C005900D92A635B107D9F717E03D
:10019000A6E5B1E001C01D92A338B107E1F70E94C6
:1001A00026080C9418270C940000EF92FF920F93EE
:1001B0001F93CF93DF93EC010E9459067B018C01C2
:1001C0009B0188819981009749F480E820303807A5
:1001D00011F421E030E83B832A831DC080FD1BC061
:1001E00008970E94211FFC01009739F0F182E082FC
:1001F000E881F98138971182108288819981816024
:10020000998388838091310790913207866090931B
:10021000320780933107DF91CF911F910F91FF90AB
:10022000EF900895E6E5F1E080E090E81182108219
:1002300093838283349621E0E638F207B9F7089574
:100240001F920F920FB60F9211242F933F934F934B
:100250005F936F937F938F939F93AF93BF93EF932E
:10026000FF9386E591E00E94D500FF91EF91BF9149
:10027000AF919F918F917F916F915F914F913F913E
:100280002F910F900FBE0F901F9018951F920F92F5
:100290000FB60F9211242F933F934F935F936F9359
:1002A0007F938F939F93AF93BF93EF93FF938AE5D1
:1002B00091E00E94D500FF91EF91BF91AF919F9186
:1002C0008F917F916F915F914F913F912F910F90FF
:1002D0000FBE0F901F9018951F920F920FB60F929E
:1002E00011242F933F934F935F936F937F938F933B
:1002F0009F93AF93BF93EF93FF938EE591E00E949E
:10030000D500FF91EF91BF91AF919F918F917F9118
:100310006F915F914F913F912F910F900FBE0F9072
:100320001F9018951F920F920FB60F9211242F93C2
:100330003F934F935F936F937F938F939F93AF936D
:10034000BF93EF93FF9382E691E00E94D500FF9167
:10035000EF91BF91AF919F918F917F916F915F913D
:100360004F913F912F910F900FBE0F901F901895B6
:100370001F920F920FB60F9211242F933F934F931A
:100380005F936F937F938F939F93AF93BF93EF93FD
:10039000FF9386E691E00E94D500FF91EF91BF9117
:1003A000AF919F918F917F916F915F914F913F910D
:1003B0002F910F900FBE0F901F9018951F920F92C4
:1003C0000FB60F9211242F933F934F935F936F9328
:1003D0007F938F939F93AF93BF93EF93FF938AE69F
:1003E00091E00E94D500FF91EF91BF91AF919F9155
:1003F0008F917F916F915F914F913F912F910F90CE
:100400000FBE0F901F9018951F920F920FB60F926C
:1004100011242F933F934F935F936F937F938F9309
:100420009F93AF93BF93EF93FF938EE691E00E946B
:10043000D500FF91EF91BF91AF919F918F917F91E7
:100440006F915F914F913F912F910F900FBE0F9041
:100450001F9018951F920F920FB60F9211242F9391
:100460003F934F935F936F937F938F939F93AF933C
:10047000BF93EF93FF9382E791E00E94D500FF9135
:10048000EF91BF91AF919F918F917F916F915F910C
:100490004F913F912F910F900FBE0F901F90189585
:1004A0001F920F920FB60F9211242F933F934F93E9
:1004B0005F936F937F938F939F93AF93BF93EF93CC
:1004C000FF9382E891E00E94D500FF91EF91BF91E8
:1004D000AF919F918F917F916F915F914F913F91DC
:1004E0002F910F900FBE0F901F9018951F920F9293
:1004F0000FB60F9211242F933F934F935F936F93F7
:100500007F938F939F93AF93BF93EF93FF93E1EC10
:10051000F0E080818F77808386E791E00E94D500AC
:10052000FF91EF91BF91AF919F918F917F916F91CB
:100530005F914F913F912F910F900FBE0F901F90A1
:1005400018951F920F920FB60F9211242F933F937D
:100550004F935F936F937F938F939F93AF93BF93CB
:10056000EF93FF93E1ECF0E080818F7D80838AE759
:1005700091E00E94D500FF91EF91BF91AF919F91C3
:100580008F917F916F915F914F913F912F910F903C
:100590000FBE0F901F9018951F920F920FB60F92DB
:1005A00011242F933F934F935F936F937F938F9378
:1005B0009F93AF93BF93EF93FF938EE791E00E94D9
:1005C000D500FF91EF91BF91AF919F918F917F9156
:1005D0006F915F914F913F912F910F900FBE0F90B0
:1005E0001F901895CF93DF93C6E5D1E0688179819C
:1005F00060FF13C06E7FE0913307F091340785E10F
:1006000097E009951982188280918601909187015F
:1006100001979093870180938601249681E0C638E4
:10062000D80721F7F8948091310790913207897F9C
:1006300090933207809331077894DF91CF9108959A
:1006400021E030E08091860190918701181619060B
:1006500014F020E030E0C9010895EF92FF920F936B
:100660001F93CF93DF93EC01FB01E280F3800081C5
:1006700011810C30110538F0EAA5FBA560E270E0AD
:1006800009959C0139C0F894000F111F000F111F2C
:100690000A5A1E4FF80182819381F0E880309F074B
:1006A00059F0F7019183808380E090E8F80193830B
:1006B000828320E030E01FC08E859F850E94211F2D
:1006C000EE85FF859F01285F3F4F3F872E879783E9
:1006D0008683D383C283F182E082F8013183208351
:1006E0008091860190918701019690938701809374
:1006F000860122E730E07894C901DF91CF911F9104
:100700000F91FF90EF9008959091C00095FFFCCF5E
:100710008093C60080E090E00895EF92FF920F93DF
:100720001F937B018C011092C00022E030E040E07A
:1007300050E00E944922205C3D4B404F5F4FCA0170
:10074000B901A80197010E944922215030403093FD
:10075000C5002093C40086E08093C20088E08093A7
:10076000C10084E893E060E070E00E948E229093E4
:100770007C0780937B071F910F91FF90EF90089566
:100780008091C00087FFFCCF0895EF92FF921F93E6
:10079000CF93DF93FB01108132812381F894809104
:1007A000C600C901E92EE7017E01F22EE7010E9491
:1007B000C0038091C60089938117C9F7789480E0BF
:1007C00090E0DF91CF911F91FF90EF900895FC0191
:1007D00085919491582F40E0292F30E0242B352B20
:1007E000C9010895CF92DF92EF92FF920F931F936A
:1007F000CF93DF937C018B016A01E90154C08630FD
:10080000910508F456C0CE01B70144E050E00E94C3
:1008100085221C82C70104960E94E7039E838D8374
:1008200086E090E0E80EF91EFA86E986F80120815C
:10083000318126503040318320838B81893411F0FF
:10084000853539F48D819E8198878F831E821D8224
:100850003FC08D819E812817390758F19C01217076
:10086000307080FF03C00296821B930BF886EF82E4
:10087000E80EF91EFA86E986F80120813181281BED
:10088000390B3183208324C09981F6018181981727
:1008900041F49A818281981721F49B818381981772
:1008A00059F0E984FA84F80180819181009709F078
:1008B000A6CF2FEF3FEF02C020E030E0C901DF916B
:1008C000CF911F910F91FF90EF90DF90CF900895FF
:1008D0009881F6018081981721F7D6CFEF92FF9289
:1008E0000F931F93DF93CF9300D0CDB7DEB78C016A
:1008F0007B0186E091E0B80144E050E00E9478225C
:100900000097C9F4C80104960E94E7039A8389837B
:10091000C8010696BE016F5F7F4F4BE051E0970123
:100920000E94F2039095991F9927991F292F30E073
:100930002150304002C02FEF3FEFC9010F900F90C0
:10094000CF91DF911F910F91FF90EF9008954F92FB
:100950005F926F927F928F929F92AF92BF92CF924F
:10096000DF92EF92FF920F931F93DF93CF93CDB758
:10097000DEB7AE970FB6F894DEBF0FBECDBF2B012A
:100980004A013901BE016D5F7F4F0E946E040097DE
:1009900009F08BC08A859B85288539853A83298310
:1009A000F40111821082F301118210825EE0E52EC3
:1009B000F12CEC0EFD1E8E010F5F1F4FB80140E1C0
:1009C00051E097010E94F2039C0197FD70C08D8950
:1009D0009E892B893C893A832983B80145E151E0FE
:1009E0009E01275E3F4F0E94F20397FD5EC08AA1E1
:1009F0009BA1B8014AE151E097010E94F20397FDE3
:100A000054C00D891E89EB88FC88CC24DD24AA24DF
:100A1000BB2417C0C8010E94E7032AEF3FEFE20E94
:100A2000F31E4816590688F0C80102960E94E70393
:100A3000C82ED92EC80104960E94E7035C010A5F04
:100A40001F4F36E0E316F10428F788A199A12E8DF7
:100A50003F8D3A83298320E030E044E2E42EF12CFC
:100A6000EC0EFD1E8E010F5F1F4F14C0B8014FE149
:100A700051E097010E94F2039C0197FD18C089A5DF
:100A80009AA5009791F02BA53CA58DA59EA508944D
:100A9000C108D108D7FEEACFF40131832083F301E6
:100AA000B182A08220E030E002C02FEF3FEFC90109
:100AB000AE960FB6F894DEBF0FBECDBFCF91DF91DB
:100AC0001F910F91FF90EF90DF90CF90BF90AF906C
:100AD0009F908F907F906F905F904F9008954F926E
:100AE0005F926F927F928F929F92AF92BF92CF92BE
:100AF000DF92EF92FF920F931F93DF93CF93CDB7C7
:100B0000DEB7E2970FB6F894DEBF0FBECDBF4C0143
:100B1000CB015A012901BE01695F7F4F0E946E041B
:100B2000009709F064C08E859F852C853D853A83AA
:100B300029838E010F5F1F4FB80144E251E09E01EF
:100B4000285D3F4F0E94F2039C0197FD52C0EFA425
:100B5000F8A889A99AA9B80149E251E09E01235E4B
:100B60003F4F0E94F2039C0197FD43C0CCA0DDA043
:100B70008EA19FA1B8014EE251E09E012E5E3F4F33
:100B80000E94F2039C0197FD34C0698C7A8CC401E9
:100B9000B50143E351E020E030E087017601F3E066
:100BA000CF2ED12CCC0EDD1EE5E0AE2EB12CAC0E3E
:100BB000BD1E0E947D1C4816590630F484E391E066
:100BC00060E070E00E94AD06C3010E941C1FBC01E2
:100BD0004B815C812D813E81C40103E311E0EE2451
:100BE000FF24CC24DD240E94BB1C9C0102C02FEFFB
:100BF0003FEFC901E2960FB6F894DEBF0FBECDBF3E
:100C0000CF91DF911F910F91FF90EF90DF90CF90E8
:100C1000BF90AF909F908F907F906F905F904F901C
:100C200008951F920F920FB60F9211242F933F93A6
:100C30008F939F93AF93BF9380918C0190918D017F
:100C4000A0918E01B0918F01309190010196A11D6C
:100C5000B11D232F2D5F2D3720F02D570196A11D9B
:100C6000B11D2093900180938C0190938D01A093EE
:100C70008E01B0938F018091880190918901A0919C
:100C80008A01B0918B010196A11DB11D809388014D
:100C900090938901A0938A01B0938B01BF91AF918A
:100CA0009F918F913F912F910F900FBE0F901F90AA
:100CB00018958FB7F89420918C0130918D01409157
:100CC0008E0150918F018FBFB901CA0108956FB78E
:100CD000F89486B590E0A0E0B0E0A89B08C000972B
:100CE000A105B10521F480E091E0A0E0B0E0209101
:100CF00088013091890140918A0150918B016FBF29
:100D0000542F432F322F2227280F391F4A1F5B1FD2
:100D100082E0220F331F441F551F8A95D1F7B90176
:100D2000CA01089585B5836085BDEEE6F0E0808157
:100D3000816080830895FC01F894848D958D4095A1
:100D4000509548235923462B572B558F448F789421
:100D500008950E945906CB010895CF92DF92EF9239
:100D6000FF920F931F93DF93CF9300D000D0CDB7A6
:100D7000DEB78B0100D000D020EC30E0ADB7BEB7BD
:100D800012963C932E93119714969C938E931397DF
:100D90000E94D9220F900F900F900F90011511050E
:100DA00099F000D000D08DEB90E0EDB7FEB79283C4
:100DB0008183D8018D919C91948383830E94D92251
:100DC0000F900F900F900F9000D08BEB90E0EDB74D
:100DD000FEB7928381830E94D9220F900F90011554
:100DE000110509F432C100D085EA90E0ADB7BEB775
:100DF00012969C938E9311970E94D9220F900F9078
:100E00006091150770911607809113079091140750
:100E1000681B790B80E09FE4AE014F5F5F4F9E013E
:100E20002D5F3F4F0E94A704009701F500D000D02E
:100E300000D0EDB7FEB731968BE591E0ADB7BEB708
:100E400012969C938E93119789819A8193838283C2
:100E50008B819C81958384830E94D922EDB7FEB754
:100E600036960FB6F894FEBF0FBEEDBF80912307F4
:100E70009091240720911507309116074091310772
:100E8000509132076DB77EB7665170400FB6F89437
:100E90007EBF0FBE6DBFEDB7FEB731966CEE70E052
:100EA000ADB7BEB712967C936E93119793838283EE
:100EB00060910B0770910C07861B970B9595879592
:100EC0009583848337832683809113079091140739
:100ED000281B390B3187208780912D0790912E0791
:100EE00093878287558744878091190790911A07C5
:100EF0009787868780911B0790911C07918B808B29
:100F000080911D0790911E07938B828B809117070C
:100F100090911807958B848B0E94D922009123070A
:100F2000109124070E501040EDB7FEB776960FB61D
:100F3000F894FEBF0FBEEDBF36EEE32E30E0F32E89
:100F400020EEC22E20E0D22E21C00817190759F436
:100F500000D0ADB7BEB71296FC92EE9211970E94E8
:100F6000D9220F900F90C8010E94211F00D000D0FD
:100F7000EDB7FEB7D282C182948383830E94D922C7
:100F80000E5F1F4F0F900F900F900F9080912307CF
:100F9000909124079C01225F3F4F02171307A8F28C
:100FA00000D08EED90E0ADB7BEB712969C938E93B5
:100FB00011970E94D92200911507109116070C5025
:100FC00010400F900F9098EDE92E90E0F92E82EDF1
:100FD000C82E80E0D82E24C00817190749F400D085
:100FE000EDB7FEB7F282E1820E94D9220F900F90F6
:100FF000C8010E94321F00D000D0EDB7FEB7319675
:10100000ADB7BEB71296DC92CE921197828313824F
:101010000E94D9220F5F1F4F0F900F900F900F90DB
:1010200080911507909116079C01245F3F4F02178E
:10103000130790F200D080ED90E0EDB7FEB79283F9
:1010400081830E94D9220F900F90FFCFEF92FF92E1
:101050000F931F93DF93CF9300D0CDB7DEB70E94DD
:1010600092060E941201789460E071EE80E090E0B8
:101070000E948D03E3E9F1E0EE7FF0930C07E0932B
:101080000B079F0128583A4F80E090E88193919395
:10109000E217F307D9F78DE097E00E949A1B8DE0E5
:1010A00097E065E177E00E94A21B40910B07509109
:1010B0000C0785E197E060E07FE42CEB32E00E94D2
:1010C0006F05009731F08EE890E060E070E00E94DC
:1010D000AD068091150790911607909314078093A1
:1010E000130789EA96E090934A07809349078BE9B2
:1010F00096E090933A078093390780E091E09093CF
:101100006C0780936B078091040190910501909387
:101110006E0780936D078E010F5F1F4F85E197E08B
:101120000E94C21E9A83898380379105B9F3813763
:1011300091053CF48335910531F18536910549F5EA
:1011400019C08437910551F38837910581F08337B1
:101150009105F9F4E0902B07F0902C070E945906B6
:10116000C701861B970B18161906C4F3D7CF0E9428
:10117000F202D4CF0E942003009781F685E890E028
:1011800060E070E009C086E790E060E070E00E94F7
:10119000AD0688E690E0B8010E94AD06BFCFFB0126
:1011A00001C01192415050408FEF4F3F5807C9F78F
:1011B00080E090E0089580E090E008954F925F9283
:1011C0006F927F928F929F92AF92BF92CF92DF9257
:1011D000EF92FF920F931F93CF93DF93EC013B01AC
:1011E0005A0149012801CB010E94211FF801918376
:1011F0008083009709F43EC09C012E7F80FD09C0CA
:10120000F30111821082CE01B501A401F701099505
:1012100029C02115310541F1890108501040C8014C
:101220000E94211FF0E882309F0781F0F2011182B5
:101230001082F0E881309F077CF020E8833092072D
:101240002CF0E0E883309E0739F414C083E090E886
:10125000F801918380830EC0EAA5FBA5CE0160E46E
:1012600070E009959C011FC0CE01B501A401F601F3
:101270000995F8CF8E859F85FC013897B182A082B1
:10128000FC013697D183C083FC0134979182808220
:10129000FC0132972881398131832083F3019183C6
:1012A00080832FEF3FEFC901DF91CF911F910F9105
:1012B000FF90EF90DF90CF90BF90AF909F908F9076
:1012C0007F906F905F904F900895AF92BF92CF92B2
:1012D000DF92EF92FF920F931F93DF93CF9300D093
:1012E000CDB7DEB75C01F80167018E010F5F1F4FBC
:1012F0007F010E94DE089C010097D1F489819A81C8
:101300000097E9F0D5011E966D917C911F97FB0126
:1013100032978D919C911197918380835E96ED9188
:10132000FC915F97C5010995F5011786168607C0E0
:1013300018161906ACF1FFEF8E3F9F0779F18981EE
:101340009A818E7F9A8389830097F9F006970E948D
:10135000211FDC0149815A818A159B0551F0909625
:10136000ED91FC919197B50109959C010097C1F40D
:101370000CC0F50157874687CA0102970E94211FBA
:10138000D50111969C938E9309C0D5019696ED9147
:10139000FC919797C50109959C0102C020E030E0BF
:1013A000C9010F900F90CF91DF911F910F91FF9086
:1013B000EF90DF90CF90BF90AF900895AF92BF9223
:1013C000CF92DF92EF92FF920F931F93CF93DF9311
:1013D0008C01EB017A01CB01842B952B802B912B77
:1013E00080FF03C06A0158011DC06801F694E794AC
:1013F0000BC0CE010E94211FF601819391936F01D2
:1014000022960894E108F108E114F10491F70FC065
:10141000CE010E94321FF50181935F01219608944D
:10142000C108D108C114D10499F70E0D1F1DC801C0
:10143000DF91CF911F910F91FF90EF90DF90CF90B0
:10144000BF90AF9008950F931F93CF93DF93EB015D
:101450008A01C90108970E94211FBC01CE01A80181
:101460000E94DE0980E090E0DF91CF911F910F9103
:1014700008950F931F93CF93DF938B01EA01C90166
:1014800008970E94211F442755274C1B5D0BB8016C
:101490000E94DE0980E090E0DF91CF911F910F91D3
:1014A00008958F929F92AF92BF92CF92DF92EF9268
:1014B000FF920F931F93DF93CF9300D0CDB7DEB78A
:1014C0005C0162956F70673009F4D4C06830D8F45D
:1014D000633009F479C0643060F4613009F43FC0CE
:1014E000DC0112968D919C911397623008F060C0D8
:1014F00029C0653009F49DC0FC018281938166306A
:1015000008F0A8C079C06B3009F46EC16C3060F48B
:10151000693009F4FEC0DC0114960D911C911597F9
:101520006A3008F03CC1CEC06D3009F48FC16D3017
:1015300008F473C16E3009F4B4C16F3011F00C942B
:10154000381BD2C1F50120813181280F391F318329
:1015500020831382128220E030E00C945E1BDC01B9
:1015600014966D917C91159716964D915C911797F5
:1015700012962D913C911397220F331F1E968D9139
:101580009C911F97820F931F15969C938E9314978F
:1015900017967C936E93169719965C934E931897B3
:1015A00013961C921E92129720E030E00C945E1B62
:1015B00064E0880F991F6A95E1F7F50193838283B0
:1015C00020E030E00C945E1BDC0112968D919C9122
:1015D0001397880F991F14962D913C911597820FA0
:1015E000931F0E94211FF501958384831382128229
:1015F00020E030E00C945E1BD50114964D915C9177
:10160000159716962D913C91179715969C938E934E
:10161000149717965C934E93169719963C932E93B6
:10162000189713961C921E92129720E030E00C94AB
:101630005E1BFC0122813381220F331F848195813F
:10164000820F931F958384831382128220E030E0FF
:101650000C945E1B8095909534E0880F991F3A9505
:10166000E1F7D50113969C938E93129720E030E01A
:101670000C945E1BFC0182819381880F991F268543
:101680003785820F931F0E94211FD50114964D911B
:101690005C91159716962D913C91179715969C93F2
:1016A0008E93149717965C934E93169719963C93C6
:1016B0002E93189713961C921E92129720E030E0FA
:1016C0000C945E1BFC01828193817C01E00EF11E73
:1016D0008E259F250E251F258023912397FF0CC063
:1016E00002A4F3A5E02DC50164E070E009959C011A
:1016F000009711F00C945E1BD5011596FC92EE92AA
:10170000149713961C921E92129720E030E00C94CE
:101710005E1BFC0126853785F9013897DC018D9128
:101720009C91119780839183B90166507040149603
:101730004D915C911597DB014D935C93B901645019
:101740007040D50116964D915C911797DB014D9332
:101750005C9322503040D50118964D915C911997B9
:10176000D9014D935C93D5011F96FC93EE931E9780
:1017700014968C93149715969C93159712962D9109
:101780003C911397280F391F11963C932E93139673
:101790001C921E92129720E030E00C945E1B011503
:1017A000110551F4FC018081918122813381820FE6
:1017B000931F9183808311C0DC0118968D919C91B9
:1017C000199716962D913C91179715963C932E9349
:1017D000149717969C938E931697F5011382128295
:1017E00020E030E00C945E1BDC0112962D913C91C0
:1017F0001397220F331F1E968D919C911F97820F76
:10180000931F1F969C938E931E9713961C921E9265
:10181000129720E030E00C945E1BFC01248135819E
:10182000828193812817390729F481E090E095831C
:10183000848305C0D50115961C921E921497F5015C
:101840001382128220E030E00C945E1BDC011296C1
:101850008D919C911397880F991F1E96ED91FC9185
:101860001F97E80FF91F14968D919C9115979183FE
:10187000808313961C921E92129718968D919C91BC
:10188000199716962D913C91179715963C932E9388
:10189000149717969C938E93169720E030E00C9443
:1018A0005E1BDC011296ED91FC911397EE0FFF1F6A
:1018B00014968D919C911597E80FF91F16968D91AE
:1018C0009C9117979183808313961C921E92129776
:1018D00018968D919C91199715969C938E931497B9
:1018E00020E030E00C945E1BFC0182819381138226
:1018F00012828733910511F40C943C1588339105BD
:101900000CF001C18A31910509F4F1C48B319105C4
:101910000CF07CC08A30910509F443C38B309105EB
:10192000C4F58430910509F492C285309105B4F470
:101930008130910509F429C2823091052CF4009779
:1019400009F416C20C943B1B8230910509F42BC29A
:101950008330910511F00C943B1B40C287309105F8
:1019600009F4CBC28830910554F48530910509F40F
:101970007FC28630910511F00C943B1BA5C28830C4
:10198000910509F4CDC28930910511F00C943B1BEF
:10199000E7C28031910509F4B7C381319105DCF4C8
:1019A0008D30910509F463C38E30910554F48B306A
:1019B000910509F409C38C30910511F00C943B1B7F
:1019C0001FC38E30910509F471C38F30910511F05A
:1019D0000C943B1B81C38531910509F40FC48631FA
:1019E000910554F48331910509F49AC3843191052A
:1019F00011F00C943B1BBDC38631910509F412C450
:101A00008931910511F00C943B1B37C48732910545
:101A100009F439C688329105CCF58132910509F473
:101A2000FCC482329105BCF48D31910509F48FC458
:101A30008E31910534F48B31910511F00C943B1BE0
:101A400079C48F31910509F4A4C48032910511F055
:101A50000C943B1BCFC48432910509F444C58532F4
:101A6000910554F48232910509F414C5833291052D
:101A700011F00C943B1B24C58532910509F442C535
:101A80008632910511F00C943B1BCBC58033910538
:101A900009F425C781339105DCF48C32910509F4F2
:101AA00067C68D32910554F48832910509F40FC64A
:101AB0008B32910511F00C943B1B25C68E3291059B
:101AC00009F485C68F32910511F00C943B1BCFC6EB
:101AD0008333910509F45BC78433910554F4813352
:101AE000910509F427C78233910511F00C943B1B33
:101AF00040C78533910509F45AC78633910511F023
:101B00000C943B1B8AC78335910511F40C946B1818
:101B1000843591050CF08CC08634910511F40C9439
:101B2000841687349105E4F58034910511F40C9402
:101B3000D41581349105A4F48933910509F4EFC7D4
:101B4000893391050CF4BCC78B33910511F40C94C7
:101B5000B4158C33910511F00C943B1B0C94C815F3
:101B60008334910511F40C942A168434910564F49D
:101B70008134910511F40C94F2158234910511F021
:101B80000C943B1B0C9410168434910511F40C94A6
:101B900037168534910511F00C943B1B0C94641698
:101BA0008C34910511F40C9442178D34910504F591
:101BB0008934910511F40C940F178A34910564F45B
:101BC0008734910511F40C9494168834910511F022
:101BD0000C943B1B0C94D6168A34910511F40C948A
:101BE00020178B34910511F00C943B1B0C94321789
:101BF0008F34910511F40C94A5178035910564F488
:101C00008D34910511F40C946A178E34910511F0FE
:101C10000C943B1B0C9491178135910511F40C9495
:101C2000DB178235910511F00C943B1B0C94511875
:101C3000853A910511F40C940D1A863A91050CF031
:101C400048C08937910511F40C944F198A379105D2
:101C500004F58A35910511F40C94C1188B35910562
:101C600064F48535910511F40C948018863591053E
:101C700011F00C943B1B0C949A188036910511F4CA
:101C80000C94D5188136910511F00C943B1B0C94E3
:101C900012198C37910511F40C94AD198D379105FB
:101CA00064F48A37910511F40C945B198B37910514
:101CB00011F00C943B1B0C9469198138910511F4B7
:101CC0000C94E119823A910511F00C943B1B0C9491
:101CD000F5198C3E910511F40C94C31A8D3E9105B3
:101CE00004F5803E910511F40C942D1A813E910566
:101CF00064F48D3A910511F40C94191A8E3A9105F9
:101D000011F00C943B1B0C94251A883E910511F49C
:101D10000C943F1A893E910511F00C943B1B0C94D6
:101D2000701AF2E085339F0711F40C94FC1A22E03C
:101D3000863392075CF48D3F910511F40C94EE1AF2
:101D40008E3F910511F00C943B1B0EC0A2E0863330
:101D50009A0711F40C94141BB2E087339B0711F01F
:101D60000C943B1B0C94201B23E530E00C945E1B71
:101D7000F50184819581268137813583248397837A
:101D8000868320E030E00C945E1BD50114968D9183
:101D90009C9115970E94321FF5018483158220E0E3
:101DA00030E00C945E1BD50118962D913C9119974B
:101DB00014968D919C91159716964D915C9117975D
:101DC000840F951F15969C938E93149717963C93AA
:101DD0002E93169720E030E00C945E1BF501848171
:101DE000958102960E94211FD50114960D911C9198
:101DF000159781309105C9F4F80113821282149667
:101E00008D919C9115970E94211FD50111969C934D
:101E10008E9314968D919C9115971F969C938E93FB
:101E20001E9720E030E00C945E1BC80102960E94D1
:101E3000211F0197F80193838283D5019696ED9136
:101E4000FC919797C50109959C010C945E1BF501C7
:101E5000208531858681978144815581841B950B2E
:101E6000958384833783268320E030E00C945E1BC7
:101E7000D50116962D913C91179714968D919C91B2
:101E800015978C01020F131F8027912720273127D8
:101E90008223932397FF0DC09A96ED91FC919B9717
:101EA000C50164E070E009959C01009711F00C9465
:101EB0005E1BF50180859185158304839783868356
:101EC00020E030E00C945E1BD50114962D913C91DE
:101ED00015978D919C91119715969C938E931497BD
:101EE00011963C932E931E96ED91FC911F97918332
:101EF000808320E030E00C945E1BF50166817781E1
:101F00004085518524813581C50103E21AE0EFEC5B
:101F1000EE2EE8E0FE2E0E9465099C010C945E1BEB
:101F2000D50118968D919C91199714966D917C917D
:101F3000159716964D915C911797649F9001659F38
:101F4000300D749F300D112415963C932E931497E9
:101F500017969C938E93169720E030E00C945E1BAE
:101F6000F50146815781248135818085918524172B
:101F7000350754F421E030E035832483978386834A
:101F800020E030E00C945E1BD50115961C921E9249
:101F9000149717969C938E93169720E030E00C943C
:101FA0005E1BF5014085518526813781220F331F45
:101FB00084819581820F931F958384835783468301
:101FC00020E030E00C945E1BD50116966D917C915B
:101FD000179718964D915C91199714962D913C91F5
:101FE0001597309521953F4FC50109E31AE0BBEDE8
:101FF000EB2EB8E0FB2E0E9465099C010C945E1B41
:10200000F5012681378144815581C901841B950BD7
:1020100082279327242735278223932397FF0CC0F9
:1020200002A4F3A5E02DC50164E070E009959C01D0
:10203000009711F00C945E1BD50118962D913C91E0
:10204000199716968D919C91179714964D915C91C6
:102050001597841B950B15969C938E931497179642
:102060003C932E93169720E030E00C945E1BD50134
:102070001496ED91FC91159732978D919C91119743
:1020800016962D913C911797820F931F9183808311
:1020900014966D917C9115975E96ED91FC915F97EA
:1020A000C501099520E030E00C945E1BF5014685E2
:1020B0005785668177818481DA018C93C5012FEF82
:1020C0003FEF09E31AE0ABEDEA2EA8E0FA2E0E94FA
:1020D00065099C010C945E1BF50146855785668158
:1020E000778184819581DA018D939C93C5012EEFD0
:1020F0003FEF09E31AE0FBEDEF2EF8E0FF2E0E9420
:1021000065099C010C945E1BD5019A96ED91FC919A
:102110009B97C50161E070E009959C010C945E1BE2
:10212000F50126813781848195812817390760F070
:1021300002A4F3A5E02DC50162E070E009959C01C1
:10214000009711F00C945E1BD50118968D919C910F
:10215000199716962D913C91179715963C932E93AF
:10216000149717969C938E93169720E030E00C946A
:102170005E1BF5014481558186819781E65AFF4FA8
:10218000208131812115310551F096958795F50112
:10219000E45AFF4F608171818617970760F0D5017F
:1021A0009A96ED91FC919B97C50160E870E00995C6
:1021B0009C010C945E1BFC01EE0FFF1F63E0880F77
:1021C000991F6A95E1F7E80FF91FE20FF31F80816D
:1021D0009181009711F40C943E1B8417950711F41C
:1021E0000C94411BD5019A96ED91FC919B97C501EA
:1021F00060E870E009959C010C945E1BD5011E9669
:10220000ED91FC911F9732978D919C91119791833D
:1022100080839696ED91FC919797C50109959C0155
:102220000C945E1BF50146815781848195818C0158
:10223000040F151F2085318521703070020F131F88
:1022400080279127402751278423952397FF0CC08F
:1022500002A4F3A5E02DC50164E070E009959C019E
:10226000009711F00C945E1BD50115961C930E93EC
:10227000149720E030E00C945E1BF5011186108667
:1022800084819581009741F586819781009721F59A
:1022900080E290E09187808720E030E00C945E1B24
:1022A000880F991FD50117969C938E9316971496B5
:1022B0002D913C91159737FF05C0816017969C932F
:1022C0008E931697220F331FF50135832483808563
:1022D0009185019691878087D50116968D919C9165
:1022E000179797FFDDCF20E030E00C945E1BF501DF
:1022F0006085718580E090E0CB0177276627268195
:10230000378140E050E0622B732B842B952B248186
:10231000358140E050E00E942722D50117967C933A
:102320006E93169715963C932E93149720E030E009
:102330000C945E1BF5018081918124813581820F8F
:10234000931F9583848320E030E00C945E1BD501BD
:1023500014968D919C91159716960D911C91179737
:1023600097FF0EC08FEF9FEF17969C938E93169753
:1023700019961C930E93189720E030E00C945E1B86
:10238000F501178216821187008720E030E00C9457
:102390005E1BD50114968D919C911597009759F06D
:1023A000BFEF8F3F9B07A9F4F50186819781F0E885
:1023B00080309F0771F4D5019A96ED91FC919B971F
:1023C000C50164E070E009959C01009711F00C9440
:1023D0005E1BF50120853185868197816481758139
:1023E0000E941422958384833783268320E030E083
:1023F0000C945E1BD5011E968D919C911F970E9497
:10240000211FF5019183808386859785089697879C
:10241000868720E030E00C945E1BD50116968D91E6
:102420009C91179702960E94211FF5010681178142
:10243000823091050CF1C8010E94211F0196D8013C
:102440008D939C93F50106811781C80102960E9425
:10245000211F0197D80113969C938E931297F50133
:102460002481358180819181821B930B91838083AC
:1024700020E030E00C945E1BC80102960E94211FF0
:102480000197D80113969C938E93129720E030E029
:102490000C945E1BD501D496ED91FC91D597C501A6
:1024A0000995F5014481558126813781958384837F
:1024B000578346833187208720E030E00C945E1BF1
:1024C00081E090E0D50114962D913C91159721154E
:1024D000310511F080E090E0F5019583848320E0E0
:1024E00030E00C945E1BD50114968C9114979927BB
:1024F00087FD909515969C938E93149720E030E07D
:102500000C945E1BF501668577856E5F7F4F848135
:10251000958197FD2DC0EE5AFF4F20813181211505
:102520003105B9F0F501EC5AFF4F40815181841714
:10253000950778F4FC01EE0FFF1FEE0FFF1FE20F6F
:10254000F31F0190F081E02D309719F0CB01099530
:1025500052C0D5019A96ED91FC919B97C50160E21E
:1025600070E009959C01009709F445C00C945E1B2E
:10257000F501EA5AFF4F208131812115310511F112
:1025800080959095F501E85AFF4F4081518184175D
:102590009507C0F4FC01EE0FFF1FE20FF31F01903F
:1025A000F081E02D309771F0C50109959C018236CC
:1025B000910521F08237910579F413C020E030E0D5
:1025C0000C945E1BD5019A96ED91FC919B97C501E9
:1025D00060E270E009959C012115310561F00C94D1
:1025E0005E1BD5019696ED91FC919797C5010995D3
:1025F0009C010C945E1BF501868597850E94211F26
:10260000D50111969C938E931E968D919C911F9748
:1026100008961F969C938E931E9720E030E00C94B2
:102620005E1BF501E680F780C70102960E94211F1C
:102630000197D70113969C938E931297009711F4EC
:102640000C94441BF501C680D78084E090E0C80E4E
:10265000D91EC7010E94211F8C01C6010E94211FA3
:10266000080F191FD70111961C930E93F5012481B1
:10267000358180819181821B930B9183808320E03F
:1026800030E00C945E1BD50116960D911C911797A6
:10269000C80102960E94211F0197F801938382834B
:1026A000009709F4F4C7C8010E94211F0197D801BF
:1026B00011969C938E93F5012481358180819181BF
:1026C000821B930B9183808320E030E0F7C7D50114
:1026D0001E966D917C911F97FB0132978D919C9175
:1026E0001197918380835E96ED91FC915F97C50170
:1026F0000995F5011786168606A0F7A1E02DC501FC
:1027000009959C01DBC7D501D496ED91FC91D59735
:10271000C5010995AC01F50124813581821B930B1C
:10272000181619060CF4B6C766857785FB013C9729
:1027300031832083FB013297D5018D919C911197B4
:10274000918380839E96ED91FC919F97C501099599
:10275000D5011E96ED91FC911F973897118210823A
:102760009696ED91FC919797C50109959C01A6C796
:10277000F50184819581009769F0FFEF8F3F9F07F6
:10278000B1F4D50116968D919C911797B0E88030E1
:102790009B0769F4D5019A96ED91FC919B97C50131
:1027A00064E070E009959C01009709F087C7F50186
:1027B0002085318586819781648175810E941422EC
:1027C000758364833783268320E030E077C7D501A3
:1027D0001496ED90FC90159718960D911C911997F1
:1027E00016968D919C9117970097B9F11E968D9131
:1027F0009C911F970A970E94211FB0E881309B0788
:1028000001F5F501868597850C970E94211F081B0D
:10281000190B101611060CF1D5011E968D919C9185
:102820001F970E94211FBFEF8F3F9B07B1F4D50177
:102830001E96ED91FC911F97F182E08281E090E07D
:102840000EC0B0E882309B0741F0F50166857785C0
:1028500000A8F1A9E02DC501099580E090E0D5011F
:1028600015969C938E93149720E030E027C7F501CE
:1028700030852185E480F58086819781009739F144
:10288000032F122FC8010E94211F9C01D5011E9603
:102890008D919C911F97AC0141602417350721F45D
:1028A000F8011182108213C02115310581F00E94B8
:1028B000211FFFEF8F3F9F0751F4D5011E96ED9129
:1028C000FC911F97F182E08281E090E002C080E0FD
:1028D00090E0F5019583848320E030E0EFC6D501D8
:1028E00014960D911C91159716968D919C911797A2
:1028F0000097A1F01E968D919C911F970E94211F19
:10290000BFEF8F3F9B0751F4D5011E96ED91FC91CF
:102910001F971183008381E090E002C080E090E087
:10292000F50120853185958384833783268320E0D4
:1029300030E0C4C6D50114966D917C91159780E066
:1029400090E016962D913C91179740E050E00E9440
:10295000F521F5012085318540E050E0620F731FBD
:10296000841F951F758364839783868320E030E0FE
:10297000A5C6D50114968D919C911597809590953B
:1029800015969C938E93149720E030E097C6F5013E
:1029900020853185848195814681578184279527BB
:1029A000958384833783268320E030E087C6D50172
:1029B00018968D919C91199716962D913C91179789
:1029C00014966D917C91159760327105D0F4A0E05A
:1029D000B0E0DC019927882740E050E0822B932B60
:1029E000A42BB52B04C0B695A795979587956A95A6
:1029F000D2F7F50195838483B783A68320E030E086
:102A00005DC6D50115961C921E92149717961C92BE
:102A10001E92169720E030E051C6F5018085918521
:102A2000268137816481758160327105C8F4A0E028
:102A3000B0E0DC019927882740E050E0822B932BFF
:102A4000A42BB52B04C0880F991FAA1FBB1F6A9522
:102A5000D2F795838483B783A68320E030E02EC627
:102A6000D50115961C921E92149717961C921E92D1
:102A7000169720E030E022C6F50146815781648137
:102A80007581CB01840F951F2085318521703070B1
:102A9000280F391F35832483809590959B01242B23
:102AA000352B8223932346235723842B952B892F61
:102AB000881F8827881F8683178220E030E0FEC5A4
:102AC000D50116962D913C91179714964D915C91D6
:102AD00015978901041B150B18968D919C911997D8
:102AE00081709070081B190BC80182279327242737
:102AF00035278223932397FF0CC09A96ED91FC9182
:102B00009B97C50164E070E009959C01009709F06E
:102B1000D5C5F5011583048320E030E0CFC5D5018C
:102B200014968D919C91159706970E94211FDC01A8
:102B30008A159B0559F0F501448155819096ED91D8
:102B4000FC919197B50109959C01B8C5D5011496E2
:102B50006D917C9115975E96ED91FC915F97C50103
:102B6000099520E030E0AAC5D5011496ED91FC91BD
:102B7000159716968C911697808318968D919C9137
:102B8000199715969C938E93149720E030E096C584
:102B9000F50186859785248135813787268795833A
:102BA000848320E030E08AC5D50114962D913C91B4
:102BB00015972031310550F416968D919C911797F9
:102BC00002C0969587952A95E2F702C080E090E0D2
:102BD000F50120853185958384833783268320E022
:102BE00030E06CC5D50114962D913C91159720319C
:102BF000310550F416968D919C91179702C0880F5D
:102C0000991F2A95E2F702C080E090E0F501208547
:102C10003185958384833783268320E030E04EC559
:102C2000D50114962D913C91159716968D919C91F6
:102C3000179740E050E815965C934E9314971796BB
:102C40003C932E93169719969C938E93189720E099
:102C500030E034C5D5011E96ED91FC911F97389751
:102C600081E090E89183808320E030E027C5F50182
:102C7000868597852FEF3FEFDC012D933C930897D6
:102C80000E94211FB0E883309B0709F406C5F501B7
:102C900086859785FC01389722E030E831832083D0
:102CA000FC013697B182A0820297D5012D913C910B
:102CB0001197FC01318320839696ED91FC919797B3
:102CC000C50109959C01FAC4D5011E968D919C9170
:102CD0001F970E94211FBFEF8F3F9B0751F0F50107
:102CE00020813181280F391F3183208320E030E09B
:102CF000E5C4D5019A96ED91FC919B97C50160E1E1
:102D000070E009959C01DAC4F50120853185848144
:102D100095814681578184239523958384833783C6
:102D2000268320E030E0CAC4D5011496ED90FC90D3
:102D3000159716960D911C911797E114F10461F106
:102D40001E968D919C911F970A970E94211FF50155
:102D500066857785F0E882309F0769F4FB013A9732
:102D600081E090E8918380836C507040DB01119684
:102D70001C930E9311C0CB010C970E94211F801B46
:102D8000910B1816190644F4D5011E96ED91FC918D
:102D90001F973C9711830083F50180859185F5820B
:102DA000E4829783868320E030E088C4D5011696BC
:102DB0009C91169717968C9117971496ED90FC900E
:102DC0001597E114F104D9F0092F182FC8010E94BA
:102DD000211FF50126853785A9014160009729F457
:102DE000D80111965C934E930AC08417950739F069
:102DF0002850304083E090E8F90191838083D50129
:102E000018968D919C9119971596FC92EE921497B5
:102E100017969C938E93169720E030E04FC4F501EF
:102E200084819581009709F43BC40684F785E02DE1
:102E3000389783E090E89183808320E030E03EC4BF
:102E4000D50118966D917C91199714964D915C91CE
:102E5000159716968D919C9117970E94DE0920E098
:102E600030E02CC4F501208531858481958146812F
:102E70005781842B952B958384833783268320E089
:102E800030E01CC4D50114968D919C91159716962F
:102E90000D911C91179797FF05C0BFEF0F3F1B07C0
:102EA00021F410C00115110569F0D5019A96ED9134
:102EB000FC919B97C50162E070E009959C01009729
:102EC00009F0FCC3F501808591859783868320E016
:102ED00030E0F4C3D50116968D919C911797009719
:102EE00039F014962D913C9115972817390768F4FD
:102EF000D5019A96ED91FC919B97C50162E070E037
:102F000009959C01009709F0D9C3F5018085918549
:102F100026813781358324839783868320E030E0C0
:102F2000CDC3D5011E968D919C911F97FC013897BA
:102F300021E030E8318320830A9722E030E8FC0169
:102F40003183208320E030E0B9C3D50116964D913E
:102F50005C91179714962D913C911597BA01621BBD
:102F6000730B18968D919C91199781709070681BC6
:102F7000790B15967C936E931497C901842395233E
:102F80000197F901E42BF52B8E1B9F0B86239723CA
:102F90004095509542235323842B952B892F881FCE
:102FA0008827881F16968C93169717961C9217974A
:102FB00020E030E083C3D501D496ED91FC91D59704
:102FC000C50109958C01F501868597852FEF3FEFA7
:102FD000DC012D933C9308970E94211FF501668523
:102FE0007785F0E883309F0749F46C507040DB012F
:102FF00011961C930E9320E030E060C3CB010A973A
:103000000E94211FB0E882309B0771F1F50186858F
:1030100097850C970E94211F9801281B390BD50119
:103020001E966D917C911F971216130674F4FB0186
:10303000389783E090E8918380836C507040FB0167
:103040001183008320E030E039C39C012F5F3F4FA4
:10305000FB013C9731832083D5019E96ED91FC9135
:103060009F97C501A8010995F50186859785FC0103
:10307000389722E030E831832083FC013697B18213
:10308000A0820297D5012D913C911197FC013183CB
:1030900020839696ED91FC919797C50109959C0127
:1030A0000DC3D50118962D913C91199714968D91C9
:1030B0009C91159716964D915C911797840F951FCB
:1030C00015969C938E93149717963C932E93169770
:1030D00020E030E0F3C2F50180859185648175813F
:1030E00046815781649F9001659F300D749F300D1C
:1030F0001124358324839783868320E030E0DEC269
:10310000D50158968D919C915997009709F4CBC29F
:103110001E96ED91FC911F9732978D919C9111977E
:10312000918380839696ED91FC919797C5010995BF
:103130009C01C4C2F5018681978124813581821763
:10314000930734F4309521953F4F821793076CF421
:10315000D5019A96ED91FC919B97C50162E070E0D4
:1031600009959C01009709F0A9C2F5018085918518
:1031700026813781358324839783868320E030E05E
:103180009DC2D50116968D919C91179714962D91FD
:103190003C91159717963C932E93169719969C93EE
:1031A0008E93189720E030E089C2F50186819781DF
:1031B000E65AFF4F208131812115310541F1969565
:1031C0008795F501E45AFF4F408151818417950797
:1031D000F0F4FC01EE0FFF1F43E0880F991F4A95A2
:1031E000E1F7E80FF91FE20FF31F0280F381E02DF2
:1031F000309769F0D50114966D917C9115971896CA
:103200004D915C911997C50109959C0157C2D50153
:103210009A96ED91FC919B97C50160E870E0099545
:103220009C014CC2F50186819781E65AFF4F2081AF
:1032300031812115310541F196958795F501E45AC3
:10324000FF4F4081518184179507F0F4FC01EE0F88
:10325000FF1FB3E0880F991FBA95E1F7E80FF91F38
:10326000E20FF31F0480F581E02D309769F0D5015E
:1032700014966D917C91159718964D915C911997C4
:10328000C50109959C011AC2D5019A96ED91FC9150
:103290009B97C50160E870E009959C010FC2F5019C
:1032A0008085918526813781358324839783868322
:1032B00020E030E003C2D5011496ED91FC91159702
:1032C00081E090E0918380831382128220E030E0DD
:1032D000F5C1F50104811581C8010E94211F8130CB
:1032E000910539F4D80111961C921E9220E030E02D
:1032F000E5C1F50126853785F901349711821082E1
:10330000F9013697B182A082F9013297D5014D912A
:103310005C91119751834083009731F4F801208329
:1033200031832283338310C0C80102960E94211F7B
:10333000D5011E962D913C911F97FC013497318346
:103340002083F80133832283D5019696ED91FC9179
:103350009797C50109959C01B1C1F501E480F580FD
:10336000C7010E94211F8C01009749F481E090E081
:10337000D70111969C938E9320E030E09FC1049773
:103380000E94211FF70191838083C80106970E9444
:10339000211FDC018A159B0549F09096ED91FC9167
:1033A0009197B501A80109959C0188C1D5015E9648
:1033B000ED91FC915F97C501B801099520E030E0DF
:1033C0007DC1F5014085518526813781220F331F4C
:1033D000220F331F84819581820F931F95838483ED
:1033E0005783468320E030E069C1D50114962D91C2
:1033F0003C91159716968D919C91179715961C9256
:103400001E92149717963C932E93169719969C9399
:103410008E93189720E030E051C1F50180859185A9
:1034200026813781358324839783868320E030E0AB
:1034300045C1D50118968D919C9119971B969C9327
:103440008E931A9720E030E039C1F501828593858B
:103450009187808720E030E031C1D50114968D91AD
:103460009C911597009709F021C19A96ED91FC91D6
:103470009B97C50161E070E009959C011FC1F501B2
:10348000C480E5800C2D1E2DC8010E94211F0097CD
:1034900009F00FC1D5011E968D919C911F97FC01DB
:1034A000389722E030E831832083FC013697B182DF
:1034B000A082FC013497C082E182FC0132972D91F9
:1034C0003C911197318320838160F801918380833F
:1034D0009696ED91FC919797C50109959C01EEC0D8
:1034E000D50116968D909C90179718964D915C91EA
:1034F000199714962D913C911597C501B4018E0131
:103500000F5F1F4FF3E2EF2EFAE0FF2EEFECCE2E0F
:10351000E8E0DE2E0E94DE089C01181619060CF465
:10352000CDC0009759F0D5019A96ED91FC919B97EB
:10353000C50160E470E009959C01C0C089819A8151
:1035400081309105D9F4F50166857785FB013297C5
:10355000D5018D919C911197918380835E96ED9119
:10356000FC915F97C5010995F5011786168606A09F
:10357000F7A1E02DC50109959C01A0C0D4011196C9
:103580009C938E939BC0F501E480F580C7010E9457
:10359000211F8130910509F48FC0D7011D921C9223
:1035A0008C010E7FC80106970E94211FDC018A153D
:1035B0009B0549F09096ED91FC919197B501A8017A
:1035C00009959C017BC0D5015E96ED91FC915F97BA
:1035D000C501B801099520E030E070C0F5012481F3
:1035E000358186819781158214823783268391875E
:1035F000808720E030E062C0D50114962D913C9187
:10360000159716968D919C91179715961C921E9260
:10361000149717963C932E93169719969C938E9316
:10362000189720E030E04AC0F50180859185268119
:103630003781358324839783868320E030E03EC042
:10364000D50114962D913C91159716968D919C91CC
:10365000179715961C921E92149717963C932E93CB
:10366000169719969C938E93189720E030E026C009
:1036700029E430E023C029E430E020C020E030E03D
:103680001DC020E030E01AC020E030E017C020E08C
:1036900030E014C020E030E011C020E030E00EC087
:1036A00020E030E00BC020E030E008C020E030E057
:1036B00005C020E030E002C020E030E0C9010F90FA
:1036C0000F90CF91DF911F910F91FF90EF90DF90BE
:1036D000CF90BF90AF909F908F9008959C01842BC6
:1036E000952B80FD08C0CA01E3E096958795EA9581
:1036F000E1F7009719F4CA01F90116C0F9017070D9
:10370000962F8827862B972B682F892F56954795BC
:1037100005C0608381833296415050404115510568
:10372000C1F706C0619301970097E1F7240F351F99
:10373000C9010895FC01118210821382128280E077
:1037400090E00895CF93DF93FC01DB0189E690E0E0
:103750005B969C938E935A9759961C921E925897FB
:103760005D961C921E925C9713961C921E92129765
:1037700015961C921E92149717961C921E921697DD
:1037800019961C921E9218971F961C921E921E97B5
:1037900051961C921E92509753961C921E925297CD
:1037A00055961C921E9254971D961C921E921C9721
:1037B000D5961C921E92D49799961C921E92989719
:1037C000D7961C921E92D697EB01CE5ADF4F1982E4
:1037D0001882EB01CC5ADF4F19821882EB01CA5ACA
:1037E000DF4F19821882EB01C85ADF4F1982188205
:1037F000EB01C65ADF4F19821882EB01C45ADF4F22
:1038000019821882EB01C25ADF4FF983E883808165
:103810009181009719F47183608306C0C281D381BE
:10382000C05ADF4F79836883B383A283FD01E05AD6
:10383000FF4F11821082CD010E948A21DF91CF912A
:103840000895FC01E25AFF4F0190F081E02D2081A4
:1038500031818217930741F0F901E05AFF4F20812F
:10386000318128173907C1F7DC01A05ABF4F2D91CC
:103870003C91119731832083FC01E25AFF4F118262
:103880001082805A9F4FFC01118210820895FC0122
:1038900089E690E0938F828F118E108E158E148E94
:1038A0001382128215821482178216821186108664
:1038B00017861686118A108A138A128A158A148A24
:1038C00008950F931F934F5F5F4F81E090E00115C4
:1038D000110511F480E090E0480F591F4430510564
:1038E00014F444E050E02A5F3F4F200F311F240FB3
:1038F000351FC9011F910F910895AF92BF92CF92CA
:10390000DF92EF92FF920F931F93F601D5012F5F85
:103910003F4F81E090E0E114F10411F480E090E089
:10392000280F391F2430310514F424E030E0020F51
:10393000131F0B5F1F4F000F111F060F171F11835F
:103940000083E114F10411F400E010E011961C93DF
:103950000E9320813181261B370B359527952E0D2F
:103960003F1DC9011F910F91FF90EF90DF90CF9005
:10397000BF90AF9008958F929F92AF92BF92CF92D7
:10398000DF92EF92FF920F931F93CF93DF93FC018F
:103990004B015A0189E0E816F1040CF08FC0DF01F9
:1039A000A05CBF4FED92FC924C2D5D2DEF01CE5BE4
:1039B000DF4FA02FB12F6D01BF01685C7F4F80E00A
:1039C00090E010C0D6011D916D01DB011D93BD017A
:1039D000163409F476C0DA010D911D91AD010993F9
:1039E000199301968E159F056CF391828082D50103
:1039F0001297B787A6878FE28C93A685B7858EEF3F
:103A000011968C93119781E090E02115310511F406
:103A100080E090E08E0D9F1D0196843091055CF44E
:103A20000497880F991F46855785480F591F578758
:103A3000468784E090E02115310539F0A685B785E9
:103A40001297B787A6872D933C93DF01A05CBF4FE9
:103A50000D90BC91A02DAD01415050408D01085CEE
:103A60001F4F0E0F1F1F9096AA0FBB1FAE0FBF1F39
:103A700014C0E8012A918E01263461F0268537852D
:103A800022503040378726876D917C911197E9014C
:103A90007983688341505040129757FFEACFA6853B
:103AA000B7851297B787A687880F991F8A0F9B1F24
:103AB00011969C938E9320E030E005C02FEF3FEFEE
:103AC00002C02EEF3FEFC901DF91CF911F910F91FF
:103AD000FF90EF90DF90CF90BF90AF909F908F902E
:103AE00008952F923F924F925F926F927F928F92A2
:103AF0009F92AF92BF92CF92DF92EF92FF920F937D
:103B00001F93CF93DF93E8E34E2E512C480E591E9E
:103B100072E4C72ED12CC80ED91EAA24BB2460E49F
:103B2000262E312C280E391E6AC0D2018D912D010E
:103B3000813219F08F3309F05BC0F601608071802B
:103B4000C3010E94211F4C01EC01CE7F209709F494
:103B50004AC0CE0106970E94211F8C0158EFE52E26
:103B60005FEFF52EEC0EFD1E80FE1BC0C7010E940C
:103B7000211FF0E881309F0771F020E88230920722
:103B800091F5D8019096ED91FC919197C80160E074
:103B900070E0AE01099583E090E8F701918380839E
:103BA00022C0C7010E94211F882EE92ECE01049752
:103BB0000E94211F9C01181619065CF4882D9E2D69
:103BC000FC0101C01192215030409FEF2F3F390777
:103BD000C9F7D8019096ED91FC919197C80160E0EA
:103BE00070E0AE01099581E090E0F301918380835C
:103BF0000894A11CB11CA2E0B0E0CA0EDB1EF101CA
:103C000080819181A816B9060CF48FCFDF91CF91F6
:103C10001F910F91FF90EF90DF90CF90BF90AF90EA
:103C20009F908F907F906F905F904F903F902F90DC
:103C300008958F929F92AF92BF92CF92DF92EF92B0
:103C4000FF920F931F93CF93DF93EB018A01000F35
:103C5000111F060F171F0617170738F47B01562F81
:103C60004F2DE8019A01032F122FB8E3AB2EB12C90
:103C7000A80EB91EA2E4EA2EF12CE80EF91ECC24FF
:103C8000DD24F0E48F2E912C880E991E19C0F501C9
:103C900081915F01813211F08F3359F4F7018081F6
:103CA00091810E94211F8C179D0718F00817190792
:103CB00080F40894C11CD11C22E030E0E20EF31E17
:103CC000F40180819181C816D9060CF320E030E020
:103CD00002C021E030E0C901DF91CF911F910F9127
:103CE000FF90EF90DF90CF90BF90AF909F908F901C
:103CF0000895CF93DF93EC01888199810E94321F50
:103D0000288139812F5F3F4F39832883482F50E026
:103D10004F7050702A813B81242B352B3B832A83A3
:103D2000DF91CF9108950E94510A08950F931F9338
:103D3000CF93DF93EC018B01888199810E94321F20
:103D4000682F288139812F5F3F4F39832883482F7F
:103D500050E04F7050702A813B81242B352B3B83E0
:103D60002A83CE010E94510A9C010250104011F09A
:103D7000009711F33B8F2A8FC901DF91CF911F91DB
:103D80000F910895CF93DF93EC0182E790E09B8F32
:103D90008A8FEEA9FFA9309729F0CE0109959C01E1
:103DA000009759F48E859F85009769F4EEA1FFA1D5
:103DB000CE0109959C01009731F03B8F2A8FC901F4
:103DC000DF91CF910895CE0161E070E00E94961ED0
:103DD0009C01F5CF0F931F93CF93DF93EC018B01E1
:103DE00082E790E09B8F8A8FEEA9FFA9309729F098
:103DF000CE0109959C01009759F48E859F85009707
:103E000079F4EEA1FFA1CE0109959C01009741F044
:103E10003B8F2A8FC901DF91CF911F910F91089598
:103E2000B801660F771FCE010E94961E9C01009775
:103E300089F724E730E0EECF9C0120503048C901DB
:103E40000895FC0180E8E030F80730F0E050F048D9
:103E500025913491C90108958081918108950E942E
:103E6000211F0895FC0180E8E030F80720F0E050C1
:103E7000F0488491089580810895DF93CF9300D016
:103E800000D0CDB7DEB7FC0180E8E030F80748F09D
:103E9000E050F0482591359145915491B901CA01FE
:103EA00008C060817181882777FD8095982F0E94D6
:103EB000BA210F900F900F900F90CF91DF9108953E
:103EC000DF93CF9300D000D0CDB7DEB7FC0180E800
:103ED000E030F80748F0E050F048259135914591E1
:103EE0005491B901CA0108C060817181882777FDAA
:103EF0008095982F0E94BA210F900F900F900F90ED
:103F0000CF91DF910895FC01DB01149711961C926B
:103F10001E9280899189009719F4718B608B06C07D
:103F2000A289B389149711967C936E93738B628BDD
:103F300008950F931F93CF93DF93EC018B01BA0188
:103F4000EE8DFF8D09950115110541F02C853D85FC
:103F5000F80184859585281739071CF020E030E0AA
:103F600002C020E730E0C901DF91CF911F910F918E
:103F70000895FC01DA01149711961C921E92808913
:103F80009189009719F4718B608B06C0A289B3895F
:103F9000149711967C936E93538B428B0895DC019A
:103FA0009496ED91FC91959761E070E040E050E0CF
:103FB00009950895CF93DF93EC018C8D9D8D81FD44
:103FC0001AC08C8D9D8D80FF19C0ECA9FDA9CE0172
:103FD0000995BC01EAA9FBA9CE0109958C899D89A7
:103FE000009779F4ECA1FDA1CE0160E070E041E022
:103FF00050E0099506C028E730E005C025E430E030
:1040000002C020E030E0C901DF91CF910895FC01AA
:10401000848D958D4095509548235923462B572BD9
:10402000558F448F0895FC01808D918D862B972BA1
:10403000918F808F85E490E008956F927F928F92A8
:104040009F92AF92BF92CF92DF92EF92FF920F9327
:104050001F93CF93DF93EC015B010C891D898E893F
:104060009F890115110509F450C0861B970B18167E
:1040700019060CF44AC002C0860108C031E0832E44
:1040800030E8932E23E0622E20E8722E96EFE92E80
:104090009FEFF92EE00EF11EC7010E94211F6C0157
:1040A000F70191828082F8013C97B182A08288EF6B
:1040B000E82E8FEFF82EE00EF11EC7010E94211F9F
:1040C000F0E883309F0741F0F70171826082EE8D46
:1040D000FF8DCE01B8010995C114D10419F41D8AD0
:1040E0001C8A13C0C6010C970E94211F9C012A192B
:1040F0003B09121613060CF0BFCFDD8ACC8A9F8BCA
:104100008E8BE8A5F9A5CE010995DF91CF911F917E
:104110000F91FF90EF90DF90CF90BF90AF909F9066
:104120008F907F906F900895CF92DF92EF92FF92E1
:104130000F931F93CF93DF93EC018B01EC88FD88E5
:10414000E616F70691F4CB010A970E94211F9D8B7A
:104150008C8B009751F10C970E94211F9F8B8E8BA7
:10416000E8A5F9A5CE01099520C0E114F104E9F014
:10417000C7010A970E94211F11C0C017D10749F437
:10418000C8010A970E94211FF7013A979183808303
:104190000CC0CE010A970E94211F7E01C82EE601A5
:1041A0006E01D92EE601209741F7F8013A9782E097
:1041B00090E891838083DF91CF911F910F91FF90C1
:1041C000EF90DF90CF900895CF92DF92EF92FF9221
:1041D0000F931F93CF93DF93FC01EB0169010489D7
:1041E00015890115110579F4758B648B378B268B36
:1041F000DB0112978081918111969C938E932A976F
:10420000198218820FC086899789821B930B181612
:10421000190674F4DB011A970D931C93758B648B4C
:10422000378B268B20A531A5CF01F901099529C02F
:10423000C8010A970E94211FE82EF92EE114F1040B
:1042400041F4F8013A97D183C0832A9719821882E2
:1042500018C0C7010C970E94211F8C199D091816C0
:1042600019064CF4FE013A97F182E082F8013A9780
:10427000D183C08306C0C7010A970E94211F87010E
:10428000DBCFDF91CF911F910F91FF90EF90DF90E7
:10429000CF900895CF93DF93EC018C8D9D8D009787
:1042A00051F0ECA5FDA5CE0109959C01009719F0F0
:1042B0001F861E862BC088899989009741F09F87A9
:1042C0008E872A893B898217930779F409C01F8654
:1042D0001E868C899D890097B9F023E730E016C0CF
:1042E000198A188A1B8A1A8A05C004970E94211FFE
:1042F000998B888B8E859F8502970E94211F9983B9
:10430000888320E030E002C025E630E0C901DF917B
:10431000CF910895FC0183E89FE1978F868F89E90B
:104320009FE191A380A389EB9FE193A382A387E000
:1043300090E295A384A38AE491E297A386A383E104
:1043400090E293A782A78AED9FE195A784A784EEC8
:1043500090E297A786A784E990E291AB80AB8DE1CC
:1043600090E293AB82AB8FEC9FE191A780A7089579
:10437000E89409C097FB3EF49095809570956195FF
:104380007F4F8F4F9F4F9923A9F0F92F96E9BB27B5
:104390009395F695879577956795B795F111F8CF31
:1043A000FAF4BB0F11F460FF1BC06F5F7F4F8F4F9C
:1043B0009F4F16C0882311F096E911C0772321F092
:1043C0009EE8872F762F05C0662371F096E8862F2A
:1043D00070E060E02AF09A95660F771F881FDAF781
:1043E000880F9695879597F90895629FD001739FDE
:1043F000F001829FE00DF11D649FE00DF11D929F81
:10440000F00D839FF00D749FF00D659FF00D9927BF
:10441000729FB00DE11DF91F639FB00DE11DF91FE3
:10442000BD01CF011124089597FB092E07260AD05C
:1044300077FD04D049D006D000201AF4709561951C
:104440007F4F0895F6F7909581959F4F0895A1E2CB
:104450001A2EAA1BBB1BFD010DC0AA1FBB1FEE1FFE
:10446000FF1FA217B307E407F50720F0A21BB30B49
:10447000E40BF50B661F771F881F991F1A9469F7C5
:1044800060957095809590959B01AC01BD01CF0121
:10449000089597FB092E05260ED057FD04D0D7DFCF
:1044A0000AD0001C38F450954095309521953F4F27
:1044B0004F4F5F4F0895F6F79095809570956195F1
:1044C0007F4F8F4F9F4F0895AA1BBB1B51E107C021
:1044D000AA1FBB1FA617B70710F0A61BB70B881F94
:1044E000991F5A95A9F780959095BC01CD01089523
:1044F000FB01DC0104C08D910590801921F441502D
:104500005040C8F7881B990B0895FB01DC0102C0DD
:1045100005900D9241505040D8F708950F931F9386
:10452000CF93DF938C01EB01009711F42097C9F131
:1045300081E090E06EE070E00E94E324FC019C01C9
:10454000009789F180E88383209771F0D387C28731
:1045500081E883838091790790917A07009721F40D
:10456000F0937A07E093790701151105E1F01187BF
:10457000008783818260838380917B0790917C0791
:10458000009789F4F0937C07E0937B0780917D0787
:1045900090917E07009739F4F0937E07E0937D07B2
:1045A00002C020E030E0C901DF91CF911F910F914F
:1045B0000895A0E0B0E0EFEDF2E20C94F126FE01E8
:1045C00035966191719180917B0790917C07DC0118
:1045D00013962C911397286013962C93AF010E9489
:1045E000FC22E0917B07F0917C072381277F2383C6
:1045F0002096E2E00C940D27ACE0B0E0E2E0F3E2BC
:104600000C94E1266C011B018A01FC0117821682C1
:10461000838181FFD1C12E010894411C511CF601F8
:104620009381F10193FD859193FF81911F0188236F
:1046300009F4BEC1853239F493FD859193FF8191D0
:104640001F01853229F490E0B6010E945726E7CF7A
:10465000EE24FF2420E02032B0F48B3269F08C325B
:1046600028F4803251F0833271F40BC08D3239F06E
:10467000803349F421602CC02260246029C0286066
:1046800027C0206125C027FD2CC0382F30533A3079
:1046900098F426FF08C08E2D880FE82EEE0CEE0C45
:1046A000E80EE30E15C08F2D880FF82EFF0CFF0CBF
:1046B000F80EF30E20620CC08E3221F426FD78C174
:1046C000206406C08C3611F4206802C0883649F494
:1046D000F10193FD859193FF81911F01882309F0DA
:1046E000BACF982F9554933018F09052933028F405
:1046F0000C5F1F4FFFE3F9830DC0833631F0833722
:1047000071F0833509F060C022C0F801808189838F
:104710000E5F1F4F420171E0A72EB12C16C062E060
:10472000662E712C600E711EF8018080918026FF2C
:1047300003C06E2D70E002C06FEF7FEFC4012C87C5
:104740000E944C265C0183012C852F7717C052E014
:10475000652E712C600E711EF8018080918026FFFD
:1047600003C06E2D70E002C06FEF7FEFC4012C8795
:104770000E943A265C012C852068830123FD20C01D
:1047800008C080E290E0B6012C870E945726FA9478
:104790002C858F2D90E0A816B90698F311C0F4016E
:1047A00027FD859127FF81914F0190E0B6012C876D
:1047B0000E9457262C85F110FA940894A108B1089C
:1047C000A114B10461F7F1C0843611F0893649F5BE
:1047D00027FF08C0F80160817181828193810C5F9D
:1047E0001F4F09C0F80160817181882777FD80958E
:1047F000982F0E5F1F4F4FE6B42EB22297FF09C0CD
:1048000090958095709561957F4F8F4F9F4FF0E801
:10481000BF2AA2012AE030E00E948326782E741875
:1048200045C0853731F43FEEB32EB2222AE030E0A6
:1048300025C099EFB92EB2228F36C1F0803720F40F
:10484000883509F0B5C00DC0803721F0883709F0F0
:10485000AFC002C020E1B22AB4FE0BC084E0B82A87
:1048600008C0B4FE09C0E6E0BE2A06C028E030E079
:1048700005C020E130E002C020E132E0B7FE08C010
:10488000F80160817181828193810C5F1F4F07C0A5
:10489000F8016081718180E090E00E5F1F4FA201FE
:1048A0000E948326782E7418FFE7BF22B6FE0BC045
:1048B0002EEFB2227E1438F4B4FE07C0B2FC05C05D
:1048C0008FEEB82202C0A72C01C0AE2C8B2D90E039
:1048D000B4FE0DC0FE01E70DF11D2081203319F457
:1048E000E9EEBE2209C0A394B2FE06C004C08678D9
:1048F0009070009709F0A3948B2C9924B3FC14C0FA
:10490000B0FE0FC0AF1428F4E72CEF0CEA18AF2C60
:1049100008C0E72C06C080E290E0B6010E9457264E
:10492000A394AF14C0F304C0AF1410F4FA1801C07C
:10493000FF2484FE0FC080E390E0B6010E9457265A
:1049400082FE1FC081FE03C088E590E010C088E7AA
:1049500090E00DC0C40186789070009791F081FCC2
:1049600002C080E201C08BE2B7FC8DE290E0B601AC
:104970000E94572606C080E390E0B6010E945726A9
:10498000EA947E14C0F37A94F201E70DF11D808160
:1049900090E0B6010E9457267720A9F706C080E272
:1049A00090E0B6010E945726FA94FF20C1F737CE57
:1049B000F6012681378102C02FEF3FEFC9012C9607
:1049C000E2E10C94FD26EF92FF920F931F93CF9399
:1049D000DF93689F8001699F100D789F100D11244F
:1049E000C8010E940725E82EE7017E01F92EE701A4
:1049F000209731F08E2D60E070E0A8010E944526DE
:104A00007E01CE01CDB7DEB7E6E00C940927CF9347
:104A1000DF938230910510F482E090E0E09181070D
:104A2000F091820740E050E020E030E026C0608155
:104A3000718168177907E0F06817790781F482813E
:104A400093812115310531F0D90113969C938E93F2
:104A500012972BC0909382078093810726C041153F
:104A6000510519F06417750718F4AB01E901DF016E
:104A70009F0172816381E72FF62F3097C1F64115B0
:104A8000510501F1481B590B4430510580F4129631
:104A90008D919C911397209719F09B838A8304C072
:104AA0009093820780938107FD01329646C0FD01F5
:104AB000E40FF51F819391934250504011965C93FF
:104AC0004E933BC020917F0730918007211531051F
:104AD00041F420915101309152013093800720938D
:104AE0007F0720915301309154012115310541F484
:104AF0002DB73EB740914F0150915001241B350B0B
:104B0000E0917F07F0918007E217F307A0F42E1BD6
:104B10003F0B2817390778F0AC014E5F5F4F241721
:104B2000350748F04E0F5F1F5093800740937F0773
:104B30008193919302C0E0E0F0E0CF01DF91CF914B
:104B40000895CF93DF93009709F491C0FC01329749
:104B5000138212826091810770918207611571053D
:104B600081F420813181280F391F80917F07909136
:104B700080078217930799F5F0938007E0937F07EA
:104B800076C0DB0180E090E002C0CD01D901AE1714
:104B9000BF0748F412962D913C91139721153105CA
:104BA000A1F7CD0121C0B383A283EF0149915991AF
:104BB0009E01240F351FA217B30779F42D913C9164
:104BC0001197240F351F2E5F3F4F3183208312969C
:104BD0002D913C91139733832283009729F4F0930E
:104BE0008207E093810743C0DC011396FC93EE93A8
:104BF00012974D915D91A40FB51FEA17FB0769F459
:104C000020813181240F351F2E5F3F4FEC01398306
:104C10002883228133813B832A83E0E0F0E002C0D5
:104C2000FB01BC01DB0112968D919C9113970097BB
:104C3000B9F79B012E5F3F4F8D919C911197820F89
:104C4000931F40917F07509180074817590779F4C7
:104C5000309729F4109282071092810702C01382C4
:104C60001282225030403093800720937F07DF91DB
:104C7000CF910895FC010590615070400110D8F764
:104C8000809590958E0F9F1F0895DC0101C06D9354
:104C900041505040E0F70895FC0161507040019090
:104CA0000110D8F7809590958E0F9F1F08950F9350
:104CB0001F93CF93DF938C01EB018B8181FF1BC08E
:104CC00082FF0DC02E813F818C819D81281739077D
:104CD00064F4E881F9810193F983E88306C0E885EB
:104CE000F985802F0995009731F48E819F81019677
:104CF0009F838E8302C00FEF1FEFC801DF91CF911A
:104D00001F910F910895FA01AA27283051F12031FF
:104D100081F1E8946F936E7F6E5F7F4F8F4F9F4F4F
:104D2000AF4FB1E03ED0B4E03CD0670F781F891F91
:104D30009A1FA11D680F791F8A1F911DA11D6A0F5F
:104D4000711D811D911DA11D20D009F468943F9112
:104D50002AE0269F11243019305D3193DEF6CF0111
:104D60000895462F4770405D4193B3E00FD0C9F7D7
:104D7000F6CF462F4F70405D4A3318F0495D31FD44
:104D80004052419302D0A9F7EACFB4E0A695979597
:104D9000879577956795BA95C9F70097610571056D
:104DA00008959B01AC010A2E0694579547953795B7
:104DB0002795BA95C9F7620F731F841F951FA01D11
:104DC00008952F923F924F925F926F927F928F92AF
:104DD0009F92AF92BF92CF92DF92EF92FF920F938A
:104DE0001F93CF93DF93CDB7DEB7CA1BDB0B0FB694
:104DF000F894DEBF0FBECDBF09942A883988488851
:104E00005F846E847D848C849B84AA84B984C884E6
:104E1000DF80EE80FD800C811B81AA81B981CE0FDD
:104E2000D11D0FB6F894DEBF0FBECDBFED010895C2
:044E3000F894FFCF24
:104E34002D03C503020074656E63007462634C0045
:104E44006462674C00666E204C006C6E64420066BF
:104E54006E205300777320550076732055006263EB
:104E6400204200006E6F7420656E6F756768205273
:104E7400414D20666F722070726F6772616D002001
:064E84000083070000009E
:00000001FF
